:100000000080001091040000990400009B0400008F
:100010009D0400009F040000A10400005E64FFEF47
:10002000000000000000000000000000A304000029
:10003000A504000000000000A7040000A9040000BF
:10004000AB040000AB040000AB040000AB040000F4
:10005000AB040000AB040000AB040000AB040000E4
:10006000AB040000AB040000AB040000AB040000D4
:10007000AB040000AB040000AB040000AB040000C4
:10008000AB040000AB040000AB040000AB040000B4
:10009000AB040000AB040000AB040000AB040000A4
:1000A000AB040000AB040000AB040000AB04000094
:1000B000AB040000AB040000AB040000AB04000084
:1000C000AB04000000000000000000000000000081
:1000D0000000000000000000000000000000000020
:1000E0000000000000000000000000000000000010
:1000F0000000000000000000000000000000000000
:1001000000000000000000000000000000000000EF
:1002F000000000000000000000000000FFFFFFFF02
:1003000000F002F800F0B6F80AA090E8000C824471
:100310008344AAF10107DA4501D100F0ABF8AFF24E
:10032000090EBAE80F0013F0010F18BFFB1A43F0D3
:1003300001031847105B0100305B01000A444FF0D5
:10034000000C10F8013B13F0070408BF10F8014B34
:100350001D1108BF10F8015B641E05D010F8016B79
:10036000641E01F8016BF9D113F0080F1EBF10F8DD
:10037000014BAD1C0C1B09D16D1E58BF01F801CB00
:10038000FAD505E014F8016B01F8016B6D1EF9D583
:100390009142D6D370470000002300240025002698
:1003A000103A28BF78C1FBD8520728BF30C148BFD8
:1003B0000B6070476E2900F0F387702900F02382EC
:1003C000662914F0D780652914F0D480672914F0C9
:1003D000D180612914F0D08003681B0A28BF41F046
:1003E0008001692900F09481642900F091817529C8
:1003F00000F08E816F2901F0EC82782900F0EF8106
:10040000E92901F08782E42901F08482F52901F0CD
:100410008182EF2901F0E982F82900F0EE8103687A
:10042000DB0928BF41F08001632902F0AD84732904
:1004300002F0B284E32902F0BD84F32902F0C28401
:10044000002070471FB59DE8030000F0A3FE02F0F6
:1004500067FA04000020002112F05AFB401C606083
:100460000020002112F03EFBE06002F05BF900F09A
:1004700051FE1FBD0FF0C3FE114603B40FF0D2FEB4
:1004800003BCFFF7DFFF04F0A7FA10F091F80000BB
:100490000648804706480047FEE7FEE7FEE7FEE71E
:1004A000FEE7FEE7FEE7FEE7FEE7FEE7154A00008F
:1004B00001030000004870470814001070B506469C
:1004C00000F04CFE056806F10B0020F00704B44272
:1004D0009CBF002070BD2B466A68BAB11068A0426C
:1004E00010D304F1080188423CBF5068586007D31C
:1004F0005168101941601168091B0160586014604F
:10050000101D70BD13465268002AE7D121462846C7
:1005100000F02CFE0028DED170BD70B50446051F2A
:1005200000F01CFE0068002C14BF446870BD002C55
:1005300018BFAC423CBF20466468F8D301680A1873
:10054000AA4218BF456003D12A68054611440160DC
:1005500028684119A1421CBF6C6070BD6168696068
:1005600021680844286070BD53EA020C00F06980DD
:100570002DE9F04B4FF00006002B1FBFB3FA83F5B7
:1005800003FA05F424FA05F65E4012BF1643B2FAE8
:1005900082F502FA05F4C5F120051EBF22FA05FC1A
:1005A00044EA0C04203556EA044C4FEA144418BFC0
:1005B000641C4FF000084FF00009904271EB030CEF
:1005C00039D3002919BFB1FA81F701FA07F6B0FA59
:1005D00080F700FA07F6C7F120071EBF20FA07FCD4
:1005E00046EA0C062037B6FBF4FCA7EB0507103FE4
:1005F00007F01F0BCBF120060CFA0BFB2CFA06F6CA
:1006000044BFB3460026202FA4BF5E464FF0000B28
:100610005BEA060C08BF4FF0010B19EB0B09ABFBB3
:10062000027C48EB0608C01B06FB02CC0BFB03CC8C
:1006300071EB0C01C1E70B46024641464846BDE856
:10064000F08B13B54FF000004FF00001AFF30080C6
:10065000BDE81C407047B2F120030AD5C2F1200367
:1006600001FA02F120FA03F300FA02F041EA030171
:10067000704700FA03F14FF000007047B2F1200319
:100680000AD5C2F1200320FA02F001FA03F321FA9D
:1006900002F140EA0300704721FA03F04FF0000135
:1006A000704700007CB51D4616460C00009001D036
:1006B0002044401E074B7B442A4669460190304641
:1006C00001F097F805461CB10020694601F0A4F836
:1006D00028467CBD691100000B460146184601F012
:1006E000A9B800000FB41CB5084B06AA7B446946A4
:1006F0000090059801F07DF804460020694601F05D
:100700008BF820461CBC5DF814FB0000291100008A
:100710002DE9F0410646002410687529314616A5DA
:1007200010D000F0A9FD002802DA404213A507E02E
:1007300031688A0701D512A502E0490704D511A541
:10074000012401E000F0A1FD00210A2206F12407A6
:1007500009E0B0FBF2FCB0FBF2F302FB1C0030300E
:1007600078541846491C0028F3D123462A463046BF
:10077000BDE8F04100F0BBBD000000002D0000000E
:100780002B00000020000000F0B40D460188090590
:1007900002D5214C7C4402E01F4C7C440E340021E5
:1007A00000F1240608E002F00F071209E75D42EAB3
:1007B00003721B097754491C52EA0307F3D10278EC
:1007C0000023120704D5702D06D009B1022311347D
:1007D0002246F0BC00F08BBD01231034F8E770B561
:1007E00004460D462146106800F04FFD024629469A
:1007F0002046BDE870400023C6E7D21D22F0070363
:10080000D3E90023C0E70368126843F020030360C4
:100810000823C3610023B7E7404201002DE9F05FE0
:10082000894604464FF0000ADFF874B1FB44C0F873
:1008300020A02046E1688847002874D0252806D0EB
:10084000D4E901219047206A401C2062F1E700268C
:100850005F462046E16888472028054607DB312DA2
:1008600005D2781910F8200C08B10643F1E7B0075B
:1008700001D526F00406C4F81CA00027C4F818A06F
:100880002A2D09D028460FF0BEFC38B304EB8708A8
:10089000303DC8F8185019E059F8041B204604EB05
:1008A00087029161E1688847012F054618D1E06908
:1008B000002820DA26F020061DE0D8F8180000EB0A
:1008C000800005EB40003038C8F818002046E16889
:1008D000884705460FF097FC0028EED1012F0AD07B
:1008E0002E2D08D12046E16888477F1C0546022F3F
:1008F00046F02006C4DBA069002803DA404246F037
:100900000106A061F00701D026F010066C2D0BD077
:10091000682D09D04C2D39D06A2D35D0742D35D0A5
:100920007A2D33D016E038E0E1682F46204688471C
:10093000B842054609D16C2F26D04FF48060E1689B
:10094000064320468847054604E06C2F1AD04FF432
:10095000807006430DB3A5F14100192802D8203557
:1009600046F400664A462946204626604E46FFF772
:1009700021FD80B101280BD0F61D26F0070000F103
:10098000080956E74020E4E78020D8E70020D6E7B2
:1009900006F104094DE7284652E7206ABDE8F09FBA
:1009A000D04101002DE9FF5F1D464FF0FF3B91460E
:1009B0004FF000085F46D5E90146A96901987F1C00
:1009C0008847296A824688470028F6D1BAF1FF3F56
:1009D0000CD0002E24F4C06419DD600614D5BAF1E1
:1009E0002B0F09D0BAF12D0F0ED103E0584604B0F9
:1009F000BDE8F09F44F48064A96901987F1C884792
:100A0000761E8246002E02DDBAF1300F03D0B9F116
:100A1000000F26D032E0A969761E01987F1C44F4AD
:100A200000748847002E824605DDBAF1780F06D0A3
:100A3000BAF1580F03D0B9F1000F10D01EE0B9F190
:100A4000000F02D0B9F1100F18D1A969761E0198D4
:100A50007F1C24F4007488478246102002E008209E
:100A600000E00A20814609E0A96908FB0908761E12
:100A700001987F1C44F4007488478246002E05DDEF
:100A80004946504600F0DAFF0028EDDAE96901989E
:100A90008847A00502D46FF00100A8E7E00725D140
:100AA000600613D5600502D5C8F1000000E040469D
:100AB00029680A1D2A600968220501D5087015E019
:100AC000220701D5088011E008600FE02868011DA9
:100AD00029600068210502D580F8008006E0210722
:100AE00002D5A0F8008001E0C0F8008038467EE71B
:100AF00070B50646FFF7DEFC0468054630460A225C
:100B0000002101F04DF92C6070BD000070B5044665
:100B1000C068810713D0800601D5A56A04E0A169E9
:100B2000606808442169451A204601F0B7FD00229B
:100B300006462946204601F0DDFC304670BD002007
:100B400070BD70B510B1BDE87040DFE70025074CFF
:100B50006E1E07E02046FFF7D9FF00B13546206D35
:100B600020F00104002CF5D1284670BD0C140010B3
:100B70002DE9F0410C4607461646104600F078F87D
:100B80002078611C61280AD0722802D077283CD1D5
:100B900002E00125002405E00225042402E00824E7
:100BA00048F2020511F8010B2B2806D0622809D063
:100BB00011F8010C74280AD00BE045F0030544F04D
:100BC0000204EFE745F0040544F00104EAE744F0CD
:100BD0001004384621460FF083FB411C15D000213C
:100BE000316171604FF40071F560F161706120074F
:100BF00004D530460222002101F07CFC306D40F02B
:100C0000010030653046BDE8F0810020FBE72DE9AA
:100C1000F0410D460646104C206DC10704D0410836
:100C200004D020F00104F7E722460EE05420FFF73D
:100C300045FC07000ED0206D47F001010843542108
:100C40002065384600F0FEF93A4629463046BDE8B0
:100C5000F0418DE70020D6E70C14001011B14FF4DD
:100C6000807201E04FF480624FF4007301F0BEBC6B
:100C70002DE9F04704464FF000094FF0FF37C568F3
:100C8000D4E90486A80707D0204601F007FD3046C6
:100C90000FF0D6FA002802DA3846BDE8F0872805BA
:100CA00002D54046FFF739FC4C21204600F0CAF936
:100CB000206D20F0010020654846EEE730B5034680
:100CC0001D783DB10A4612F8014B1CB1AC42FAD175
:100CD0005B1CF5E7181A30BD40EA010310B59B070D
:100CE0000FD1042A0DD310C808C9121F9C42F8D096
:100CF00020BA19BA884201D9012010BD4FF0FF3047
:100D000010BD1AB1D30703D0521C07E0002010BD5C
:100D100010F8013B11F8014B1B1B07D110F8013BE8
:100D200011F8014B1B1B01D1921EF1D1184610BDC9
:100D300010B5431C02E010F8011B71B18107FAD114
:100D40004FF0013202C88C1A8C4314EAC211F9D058
:100D5000C01A0A0603D0C01E10BDC01A10BD0A0476
:100D600001D0801E10BD0902FCD0401E10BD40EA1B
:100D7000010370B59B072ED14FF00136042A2AD308
:100D800008C810C99D1B9D43121F15EAC61517D030
:100D9000D8B2E1B2401A50EA056110D198B2A1B2BE
:100DA000401A50EA05410AD123F07F4024F07F41E8
:100DB000401A50EA052102D1180EA0EB146070BD54
:100DC000A342DBD018BA21BA884201D9012070BDF4
:100DD0004FF0FF3070BD0AB9002070BD10F8013B24
:100DE00011F8014B63B1A3420AD1521E08D010F88A
:100DF000013B11F8014B1BB1A34201D1521EEDD1B1
:100E0000181B70BD032A40F2308010F0030C00F074
:100E1000158011F8013BBCF1020F624498BF11F834
:100E200001CB00F8013B38BF11F8013BA2F10402ED
:100E300098BF00F801CB38BF00F8013B11F0030365
:100E400000F06780083AC0F0088051F8043B083A87
:100E500051F804CBA0E80810F5E7121D5CBF51F86B
:100E6000043B40F8043BAFF30080D20724BF11F8E5
:100E7000013B11F801CB48BF11F8012B24BF00F84A
:100E8000013B00F801CB48BF00F8012B7047431A23
:100E900028BF9A427FF6B6AF032A1044114440F2AD
:100EA000268010F0030F1EBF11F8013D521E00F8FE
:100EB000013D10F0030F7FF4F6AF11F0030300F0D3
:100EC0006D80083AC0F00B8051F8043D083A51F8A3
:100ED00004CD40F8043D40F804CDFFF7F3BF121DE8
:100EE0005CBF51F8043D40F8043DAFF30080D207E9
:100EF00024BF11F8013D11F801CD48BF11F8012CB4
:100F000024BF00F8013D00F801CD48BF00F8012CD6
:100F1000704710B5203AC0F00B80B1E81850203A65
:100F2000A0E81850B1E81850A0E81850BFF4F5AF89
:100F30005FEA027C24BFB1E81850A0E8185044BF13
:100F400018C918C0BDE810405FEA827C24BF51F880
:100F5000043B40F8043B08BF7047D20728BF31F874
:100F6000023B48BF11F8012B28BF20F8023B48BFC5
:100F700000F8012B7047431A28BF9A427FF6C9AF89
:100F8000104410F0030F11441EBF11F8013D521E12
:100F900000F8013D10F0030F7FF4F6AF103AC0F0F7
:100FA0000A8010B531E91850103A20E91850BFF402
:100FB000F9AFBDE81040530724BF31E9081020E91C
:100FC000081044BF51F8043D40F8043D12F0030FEF
:100FD00008BF7047D20728BF31F8023D48BF11F85B
:100FE000012C28BF20F8023D48BF00F8012C7047B3
:100FF00002F0FF0343EA032242EA024200F002B891
:101000004FF000020429C0F0128010F0030C00F031
:101010001B80CCF1040CBCF1020F18BF00F8012BAF
:10102000A8BF20F8022BA1EB0C0100F00DB85FEA7D
:10103000C17C24BF00F8012B00F8012B48BF00F849
:10104000012B70474FF0000200B5134694469646B8
:10105000203922BFA0E80C50A0E80C50B1F12001CB
:10106000BFF4F7AF090728BFA0E80C5048BF0CC079
:101070005DF804EB890028BF40F8042B08BF7047D7
:1010800048BF20F8022B11F0804F18BF00F8012B49
:10109000704700004FF0013C50F8042B51F8043B1E
:1010A0009A4221D1A2EB0C03934313EACC1317D13C
:1010B00050F8042B51F8043B9A4215D1A2EB0C03D3
:1010C000934313EACC130BD150F8042B51F8043B93
:1010D0009A4209D1A2EB0C03934313EACC13DBD061
:1010E0004FF00000704700BFD01A01BAB1FA81F189
:1010F00001F0180122FA01F0CB40C1F12001DBB26E
:10110000C0B2C01A2CFA01F3D11A914311EAC311EB
:10111000E6D1704770B5064C7C44064D7D4403E033
:10112000206820448047241DAC42F9D170BD0000E6
:10113000944E0100B04E01002DE9F04117460E46D5
:10114000054633B107FB0354E41B2046B047A542D4
:10115000FAD1A5F10800BDE8F08100000048704711
:1011600020150010704770477047704738B5044627
:101170000A460020694602F0F4FB002808BF38BD8B
:1011800002460099204601F0CFFB012038BD012026
:1011900002F0B9BBF8B502F0D9FB054600200C46B9
:1011A000102000BF0646A819A0420DD93246694654
:1011B000002002F0D6FB070008BF02F0A4FB009855
:1011C000A04218BF0546C419FFF7C8FF05600746CF
:1011D000F01D20F007004619284600F00AF8B44236
:1011E00008BFF8BDA21B31463868BDE8F84001F0E1
:1011F0009BBB00210160C0E90110704710207047BF
:1012000010B5FFF757F9006810BD10B50446FFF799
:1012100051F9046010BD0FB4014610B504AA03983B
:1012200000F008FB10BC5DF814FB70B5044685693E
:101230000068C10601D5302600E02026C00707D08F
:1012400070BDD4E9012130469047206A401C2062DD
:101250006D1EF6D570BD70B5044685690078C0076F
:1012600007D170BDD4E9012120209047206A401C9D
:1012700020626D1EF6D570BD09684A0501D540B2E1
:101280007047C905FCD500B2704709684A0501D509
:10129000C0B27047C905FCD580B2704770B50C4626
:1012A0000546012A05D02878800600D5EA69002382
:1012B00002E0012305E05B1C934202D2E05C0028BF
:1012C000F9D1A869E618C01AA861286A18442862EA
:1012D0002846FFF7AAFF04E0D5E9012114F8010B25
:1012E0009047B442F8D32846FFF7B5FF70BD2DE90B
:1012F000F0470D4699469246044600F124080168DD
:10130000880604D5E06921F01001216000E0012089
:10131000A84201DD471B00E00027A1697A1902EB12
:101320000900081AA0612078C00602D42046FFF701
:101330007CFF002608E0D4E901211AF80600904756
:10134000206A401C761C20624E45F4DB2078C006E3
:101350000AD52046FFF769FF06E0D4E901213020D5
:101360009047206A401C2062381EA7F10107F4DC78
:1013700007E0D4E9012118F805009047206A401CD5
:101380002062281EA5F10105F3DC2046FFF763FF6C
:101390002078000602D50220BDE8F0870120FBE797
:1013A00011680268006A530501D508700AE0D30588
:1013B00001D5088006E0130603D5C217C1E9000273
:1013C00000E008600120704770472DE9FF4F0C4690
:1013D0001E464FF0FF378BB0D2E90001DDF8608088
:1013E0000A908A46C1F30A5505B93D4600210846D0
:1013F0004FF00000BAF1000F00F4400005DA00EBF6
:1014000080004FF4400101EA50004FEA9059B9F1D1
:10141000010F00DDB9460A9850EA4A000ED044F6A2
:101420001050A5F2FF3545432F14B8F1000F1ED020
:101430007542291E1EDDC9F100021CE0B8F1010F42
:101440004FF0000001D0302103E0F24305E02154C9
:10145000401CB042FBDB30460022002121540B9996
:10146000C1F80880C1E900200FB0BDE8F08FBD1BB6
:101470006D1CDEE74A4600DA694206A802F03AF936
:1014800006AB93E8070003AB83E8070050460A99D0
:1014900002F06EFE8DE80700A0F500501F380090A6
:1014A0000398002D0ADD42F21F014A46084400233A
:1014B00003A90390684603F019F909E0A0F500506C
:1014C0004A461F38002303A90390684603F038F901
:1014D0008DE807000004000C03D04FF0FF304108F6
:1014E00000E01046B8F1000F03D00022009215462C
:1014F0001EE0751E05D401F031FA303262556D1EC2
:10150000F9D5B3460122084302D000227F1C04E033
:101510002078302801D100227F1E002A099784D02C
:101520001DE0112D07DA01F019FA303262556D1CF9
:1015300050EA0102F5D1084302D00098C8B10EE08C
:101540000021681E05E0235C625C63542254401E47
:10155000491C8142F7DBAB46A81B401E09900020C6
:1015600004F80B000B98099AC0F80880C0E9002B1A
:101570007AE711264FF0000857E72DE9F04F88462B
:101580000446D21D22F0070191B0D1E90001CDE956
:101590000A010EF016FB02460B98C00F01D02D2059
:1015A00007E02068810701D52B2002E0202101EA15
:1015B000C000032A099001D0072A05DB03464146F3
:1015C000204601F097FB0BE12078800601D5E06909
:1015D00000E00620B8F1650F814606D0B8F1660F2D
:1015E00018D0B8F1670F70D131E00020B9F1110FB8
:1015F000009001DB112301E009F101030AAA01A90E
:101600000CA8FFF7E2FEDDE90C70002609F10105E8
:10161000834647E001204B4600904FF000470AAA5E
:1016200001A90CA8FFF7D1FEDDE90DB00C995D46CC
:10163000002610B909F101000D18B9EB050003D41B
:10164000C0F1FF3609F10105A5EB09002BE0B9F166
:10165000010F01DA4FF001090020B9F1110F0090DC
:10166000484601DD112300E003460AAA01A90CA89F
:10167000FFF7ABFEDDE90C704D460026834620786F
:1016800000070AD4AB4500DA5D4601A8012D04DD50
:10169000411911F8011C302907D04F4502DA17F122
:1016A000040F04DA012082460FE06D1EEEE7002FE2
:1016B00002DCED1B3E4403E0781CA84200DD7D1CEB
:1016C000B81B00F1010A4FF000472078000703D44F
:1016D000AA4501DB4FF0FF3A0021B7F1004F0DF1B1
:1016E00043088DF8431024D002202B23002F01DA69
:1016F0007F422D230A21021EA0F1010000DC5FB110
:1017000097FBF1FC97FBF1F201FB1C7C17460CF1F7
:10171000300C08F801CDEEE7A8F101000370218834
:10172000090501D5452100E06521A0F1010800F877
:10173000011C09980FA9A1EB0807FF1D00B10120AA
:10174000411901EBEA70A1693844081A401EA061F2
:101750002078C00602D42046FFF767FD099828B11B
:10176000D4E901219047206A401C20622078C006FD
:1017700022D52046FFF759FD1EE0002E04DBB345BD
:1017800002DD01A8805D00E03020D4E9012190470E
:10179000206A401C2062761CAAF101005FEA000A60
:1017A0000AD101F0BDF8C0680168405CD4E90121AC
:1017B0009047206A401C2062281EA5F10105DCDC50
:1017C00007E0D4E9012118F8010B9047206A401C7A
:1017D0002062381EA7F10107F3DC2046FFF73BFD2E
:1017E000032011B041E6000001694A1C026108783B
:1017F000704700B58FB0CDE9013100210591054951
:101800007944CDE9031011466846FFF707F80FB099
:1018100000BD0000E5FFFFFF0A6802F8010B0A6047
:101820007047D1E900239A4202D2531C0B6010701A
:1018300070470000074B70B50D467B44FFF7D9FF9A
:101840000446284600F04AFC10B14FF0FF3070BD4E
:10185000204670BD93EE00002DE9FF5F15468A46D5
:101860000446DFF8AC80F8440027D8E900103E4673
:10187000CDE9001010E03AF816106A4602A802F00E
:101880000FF8411C07D02178890603D5E269391881
:1018900091420DD80744761C2078800602D5E06975
:1018A000B84205DDAE42E6DB3AF816000028E2D188
:1018B000A069C01BA0612046FFF7B7FCD8E9001063
:1018C000CDE90010002017E03AF818106A4602A887
:1018D00001F0E6FFB0F1FF3F81460BD000250DF18E
:1018E000080B05E0D4E901211BF8050090476D1CA9
:1018F0004D45F7D308F10100B0428046E4DB206A91
:10190000384420622046FFF7A6FCBDE8FF9F000098
:10191000063201002DE9F0418046D21D22F0070277
:101920000025D2E90002F52915A614D0011E72F196
:10193000000106DA0023D0EB030063EB020211A6DC
:1019400008E0D8F800108B0701D50FA602E0490780
:1019500001D50EA601251146002408F1240704E054
:1019600000F0FCFF30323A55641C50EA0102F7D116
:101970002B46324621464046BDE8F041FFF7B7BC52
:10198000000000002D0000002B00000020000000DF
:1019900030B4002100F1240408E002F00705D20869
:1019A000303542EA4372DB086554491C52EA0305AC
:1019B000F3D10468002310A2250707D5A40600D49C
:1019C00021B1C46901230DA2641EC46130BCFFF7BC
:1019D0008EBC10B5044621461068FFF756FC02463F
:1019E0002046BDE810400023D2E7D21D22F00701B7
:1019F000D1E90023CCE70000000000003000000027
:101A00000FB400B58DB010A9099000910B904FF064
:101A1000FF300A9000200C90064878440690064853
:101A200078446A4607900F9909A800F037F90DB07D
:101A30005DF814FB9F020000B70200003A2800D2B4
:101A4000303820F02002412A01D3A2F13700884229
:101A500001D34FF0FF3070472DE9FF4F1C469146F0
:101A60004FF0FF3581B000218A468846D4E90167EE
:101A7000A16902986D1C8847216A8346884700281F
:101A8000F6D1BBF1FF3F0CD0002F26F4C0661ADD63
:101A9000700615D5BBF12B0F0AD0BBF12D0F0FD15E
:101AA00004E04FF0FF3005B0BDE8F08F46F48066EB
:101AB000A16902986D1C88477F1E8346002F02DDB6
:101AC000BBF1300F03D0B9F1000F2AD025E0A16996
:101AD0006D1C02987F1E46F400768847002F8346CF
:101AE00005DDBBF1780F06D0BBF1580F03D0B9F17B
:101AF000000F10D011E0B9F1000F02D0B9F1100FB2
:101B00000BD1A1696D1C02987F1E26F400768847D0
:101B10008346102000E0082081464FEAE9700090DB
:101B200017E00A20F8E74346AAFB0928DDF800C0C1
:101B30007F1E03FB098046F4007605F101050AFBD0
:101B40000C0112EB0B0A029841EBEB78A169884774
:101B50008346002F06DD49465846FFF76FFF5FEAD0
:101B6000000BE0D5E16902988847B00502D46FF018
:101B7000010098E7F00718D1700610D5514670059E
:101B800005D50023D1EB030163EB080200E04246D8
:101B90002068031D23600068C0E9001205E020688A
:101BA000011D21600068C0E900A828467BE72DE9F7
:101BB000FF5F4FF000089946144646469169D2E906
:101BC00001A7DDF838B001988847054659EA0B00AF
:101BD00005D009E0A1690198761C88470546216A6D
:101BE000284688470028F5D1681C03D05FEACA70F0
:101BF00005D015E04FF0FF3004B0BDE8F09F20683D
:101C0000011D2160D0F800800AE05FEACA7001D1AE
:101C100008F8015BA169761C01987F1E884705467C
:101C2000002F1ADD681C18D0B9F1000F0DD0E8178D
:101C300005EBD060421120F01F0059F822102A1A3B
:101C4000012090400142E0D107E0BBF1000FDCD160
:101C50002846216A88470028D7D0E169019888473B
:101C6000BBF1000F07D1002E05DD5FEACA7002D17B
:101C7000002188F80010A068B84203DDBBF1000F16
:101C800003D017B16FF00100B6E73046B4E70000AB
:101C9000026811441378016018467047D160054905
:101CA000794451610449794411620021116111465E
:101CB00001F08CB8EDFFFFFF3D0D0000426842B11E
:101CC000016811F8013B23B1521EC0E90012184609
:101CD00070470121C160881E704742685AB1C368CD
:101CE000016843B983688B4205D0491E521CC0E984
:101CF0000012002070474FF0FF3070470FB40023F0
:101D000000B589B00CA900910B99CB60214B7B44A5
:101D10000693214B7B44079304236FF00042CDE9E7
:101D200001321E4A7A446B4608920246002012F0A5
:101D3000ABFC09B05DF814FB70B506464FF0FF3000
:101D400015460C46324686B00091CDE90101694640
:101D50000020049004A8FFF7D1FF02460498211840
:101D600025B108B1084600E0204628600498002804
:101D70000DD0002A02DD0098884208D03246081BA8
:101D800069460094CDE9010404A8FFF7B7FF06B047
:101D900070BD0000ABFFFFFFC3FFFFFFBF0C0000E3
:101DA0002DE9F04791460F4680460446002614F878
:101DB000015B2DB100F0ACFD0068405DC007F6D1BD
:101DC0002B2D02D02D2D18D0641E4A4639462046B0
:101DD00001F032FC27B13968A14201D1C7F8008077
:101DE0004FF0020471050BD54042002803DDFEF7D9
:101DF00061FB0460A007BDE8F08746F48066E4E775
:101E00000028F8DAFEF756FB04606FF00040F2E7B6
:101E10002DE9FF4F4FF000089A461446C14646464A
:101E200083B0D2E901B7CDF80080CDF80480916984
:101E300004988847109905465AEA010005D009E040
:101E4000A1690498761C88470546216A2846884778
:101E50000028F5D1681C03D05FEACB7005D02AE0DA
:101E60004FF0FF3007B0BDE8F08F2068011D216002
:101E7000D0F800801FE002A86A46E9B201F0F2FC47
:101E8000411C07D0801C09D04FF000095FEACB70DD
:101E900007D00AE0E169049888473EE04FF0010965
:101EA00004E0BDF8081028F8021B7F1EA169049801
:101EB000761C88470546002F1ADD681C18D0BAF139
:101EC000000F0DD0E81705EBD060421120F01F0085
:101ED0005AF822102A1A012090400142CBD107E083
:101EE00010980028C7D12846216A88470028C2D008
:101EF000E16904988847B9F1000F0ED1109830B904
:101F0000002E04DD5FEACB7001D1A8F80000A068C4
:101F1000B84202DD109818B117B16FF00100A1E7C7
:101F200030469FE72DE9FF4F4FF000089B461446CF
:101F3000454683B0D2E90196CDF80080CDF8048003
:101F40009169DDF848A00498884707465BEA0A00D3
:101F500005D009E0A16904986D1C88470746216AED
:101F6000384688470028F5D1781C03D05FEAC9704D
:101F700005D01BE04FF0FF3007B0BDE8F08F2068C0
:101F8000011D2160D0F8008010E05FEAC97007D120
:101F90006A464046B9B201F083FC411C31D080440E
:101FA000A1696D1C0498761E88470746002E14DD33
:101FB000781C12D0BBF1000007D03B46DDE91012BF
:101FC00001F089FB0028E0D107E0BAF1000FDCD175
:101FD0003846216A88470028D7D0E16904988847A5
:101FE000BAF1000F06D1002D04DD5FEAC97001D1FE
:101FF00088F80000A068B04203DDBAF1000F03D0FA
:1020000016B16FF00100B7E72846B5E72DE9FF5F8D
:102010009B46144600273D469169D2E90196DDF8BA
:1020200040A00198884780465BEA0A0005D009E095
:10203000A16901986D1C88478046216A40468847FF
:102040000028F5D1B8F1FF3F03D05FEAC97005D091
:1020500014E04FF0FF3004B0BDE8F09F2068011D90
:10206000216007680AE05FEAC97001D127F8028B96
:10207000A1696D1C0198761E88478046002E15DDEB
:10208000B8F1FF3F12D0BBF1000007D04346DDE9B5
:102090000E1201F020FB0028E5D107E0BAF1000F95
:1020A000E1D14046216A88470028DCD0E1690198E7
:1020B0008847BAF1000F05D1002D03DD5FEAC97032
:1020C00000D13880A068B04203DDBAF1000F03D020
:1020D00016B16FF00100BEE72846BCE7007B00F0B8
:1020E0008000704770B50D4601461446D3685069AC
:1020F0002A460EF041F9002807DA411C07D0E168B2
:1021000020F0004041F48041E160281A70BD204673
:1021100000F090FA4FF0FF3070BDC16800220260FD
:1021200021F4805141F0400111F4C06FC16001D031
:102130008260704702694168891AC269891A8160A0
:1021400070472DE9F0470446C06840F48000E06025
:10215000010312D520F40020E060810606D4E26A73
:1021600061688A4200D80A46511A216040F4001082
:10217000E06094F82500BDE8F08720F40010E060EE
:10218000800602D5204600F0ACFAE06842F28101F8
:102190004FF0FF390140012903D0204600F04AFAF0
:1021A000B6E02168002600290ADAC94340F48050CD
:1021B0002160C4E902606068411C61600078DAE770
:1021C00044F2400108420CD020F4A04040F040000E
:1021D0002660E06021696068401AE169401AA060E9
:1021E00096E0216991B9C00310D4E069FEF766F961
:1021F0002061B0B1E06840F4006010F4407FE0601E
:1022000002D140F48070E06020696060E068D4F83A
:1022100014A0C1061AD5C0030ED5204600F03EFA20
:1022200014E004F1240020610120E061E06820F462
:10223000407040F48060E6E721696068401AA16957
:10224000014450460EF0C0F80028A6DBE068C00349
:102250002AD56168E06A884200D808462169451A93
:10226000E069471B1BD02046D4F8188000F016FA0E
:1022700008EB05015046C4F818800EF0A5F80028B8
:102280008BDBE06840F40030E060000202D5A0691A
:102290002844A061E1692069C91B45180DE020466A
:1022A00000F0FCF9E769F5E725696168D4E90607FC
:1022B000491BE56208446560A061E06820F01000F9
:1022C00010F4C06FE06002D0204601F0A7FAE06889
:1022D00040F48050C4E90260000205D52069E06244
:1022E00060606FF0010046E7224639462846FFF756
:1022F000F9FE411C0CD02918E16258B1401E206043
:10230000681C6060E06840F40030E060287832E7E4
:10231000484630E765602046FFF7FFFEF8E72DE905
:10232000F04705460C46C86820F4201040F48000B1
:10233000C860800602D5084600F0D3F9E06841F293
:1023400082014FF0FF390140022903D0204600F0FE
:1023500071F9B5E000F42041B1F5004F0FD1C00391
:1023600006D56168E06A884200D80846606006E0E9
:102370002069E062606060690DF082FFA061A06882
:102380000022EEB200280DDAE1688B050AD4C043C2
:10239000A06041F490302260E0606068411C6160A0
:1023A0000670A5E0E0689046226040F40050E060CE
:1023B000206968BB60690DF07BFF012704F12405EB
:1023C000A0B1A08910F4407F08D0E069FEF776F84C
:1023D000206118B1E06840F4006016E0E761256113
:1023E000E06820F4407040F480600EE0E069FEF7A1
:1023F00065F800282061F1D0E06840F4006010F436
:10240000407FE06002D140F48070E060206960604D
:10241000E06825696FF0010AC1051FD56168E06AAF
:10242000884200D80846411B04D02246284600F0C6
:102430000BF9F0BBE068010203D5E562C4E901587D
:1024400054E0691CE1626160E16940F48030491E3A
:10245000C4E9021030462E70BDE8F087010202D5B3
:1024600000F480320AE06068411C61600670E06838
:102470000A2E40F48030E06006D00022E16A6068F5
:10248000814203D90B4602E00122F7E70346A78900
:102490005B1B7F0503D4E7699F4200DDE2B1814207
:1024A00000D80146E5620F1AC4E90158002B09DD86
:1024B00000E005E022461946284600F0C5F808B1BC
:1024C0004846C9E747B1A069E5626560C01BA061E5
:1024D000E06840F01000E060E068000208D5616844
:1024E000A069E562491B08446560A0615046B3E7F6
:1024F0003046B1E72DE9F041044616460D464769DE
:10250000007B80072ED038460DF0D2FE50BB3EB384
:10251000012E02D0022E25D104E0204601F05CF904
:1025200005441DE038460DF0ABFEE168002841F09F
:102530001001E16005DA204600F07CF80120BDE8DA
:10254000F081C9030BD56268E16A914200D8114657
:10255000A26911442269891A814200DD08460544B6
:10256000002D01DA0220EAE7E16A6068E268814250
:1025700006D29103E06203D522F4003141F010024B
:10258000A6690027AE4213DCE16A814201D90B46FD
:1025900000E0034603EB060C2369ACEB030CAC45EF
:1025A00006DD814201D98C4600E084469C4505D178
:1025B000A760276042F02000A5620DE0AD1BE66930
:1025C000AE1B8142A66000D90846C01A281A2060B6
:1025D0005819606022F0200003490840E0600020A4
:1025E00084F84870ABE70000BFCFD7FF70B5C46870
:1025F000A50713D0650211D4B2F5807F09D0B2F5DA
:10260000007F06D0B2F5806F08D1012300F12401CC
:1026100006E05D1E6FF07F46B54201D3012070BD1C
:102620000161C361416024F470611143C160002005
:1026300070BD0000C16821F4001141F08001C1604B
:1026400000218160016070472DE9F0478146144602
:102650000E464FF0FF383248D5685769054209D019
:102660003846A1690DF0B0FE002811DB2C48C043AC
:102670000540E5602B463246494638460DF0C0FE1F
:10268000A16920F00042B21A11440028A16103D0D0
:102690002046FFF7CFFF4046BDE8F08770B50446FF
:1026A0000569C06A6168884200D80846E16821F47B
:1026B0002011E160C90312D5A84208D02246411B6F
:1026C0002846FFF7C1FF10B14FF0FF3070BD00206A
:1026D000E562C4E90150E06820F48030E060002049
:1026E00070BD10B50446C06820F02000E060A16A0B
:1026F000A06988420DD02046FFF7D0FFE06820F4A3
:10270000405040F01000E060A06AA0612069E062E3
:10271000606044F24001E0688843E06010BD000062
:102720001000020010B542485421FEF78BFC4148CE
:102730005421FEF787FC40485421FEF783FC3F49B3
:102740003B483C4A3F4B08603D490A603A491960A2
:10275000531C0365481C1065012008653B48344A3A
:1027600039A17844FEF704FA20B9384878440A3889
:1027700001F0C2F837482F4A35A17844FEF7F8F93E
:1027800020B9344878440A3801F0B6F832482A4A69
:102790002FA17844FEF7ECF920B92F4878440A3885
:1027A00001F0AAF840232248DC0000212246FFF76E
:1027B0001DFF20B125487844543801F09DF81D488C
:1027C000224640230021FFF711FF20B12148784421
:1027D000543801F091F81848224610230021FFF7E1
:1027E00005FF002806D01C487844BDE81040563844
:1027F00001F082B810BD104870B5006D20F00104E2
:102800000B48FEF735FA0B48FEF732FA0A48FEF796
:102810002FFA09E0206D20F001052046FEF728FA86
:102820002046FDF77AFE2C46002CF3D170BD000047
:102830000C14001060140010B41400107802001082
:102840007C02001080020010720000000E200100C7
:1028500077000000FD1F0100ED1F010010B50020F2
:1028600001F043F8AFF30080BDE81040012000F014
:1028700049B810B501F04EF8BDE8104001F030B88D
:1028800040EA0103024630B59B0710D14FF00134F6
:1028900000E008C208C91D1B9D4315EAC41FF8D0FB
:1028A00013F0FF0102F8011B0DD01B0AF8E711F825
:1028B000013B002B02F8013B05D011F8013B002B36
:1028C00002F8013BF3D130BD0022CBB210F8011B5E
:1028D000994200D1421E0029F8D110467047421E8D
:1028E00012F8013F002BFBD111F8013B002B02F83D
:1028F000013BF9D1704710B50DF08BF9BDE81040E0
:102900000DF0CEB801491820ABBEFEE7260002004C
:1029100010B500F005F8001D10BD00BFF501010065
:102920000048704724150010034640688C46002874
:1029300018BF88423CBF03464068F8D31868184463
:10294000884207D00CF1030020F00700001D411A57
:10295000521A0146081D0A60FDF7DFBD30B5B0F11F
:102960000A024FEA900E71F100034EEA817EB0EB4D
:102970000E0061EB91014FEA101E4EEA017E10EB52
:102980000E0041EB11114FEA102E4EEA016E10EBD2
:102990000E0041EB11214FEA104E4EEA014E10EBB2
:1029A0000E0041EB1141401841F100014FEAD00007
:1029B00040EA41704FEAD10110EB80054FEA8104F3
:1029C00044EA907444EB01046D1944EB0404521B77
:1029D000A3414FF0000348BF0A3200D530BD401C70
:1029E00041F1000130BD10B50446FFF791FF0068CA
:1029F000005D00F0010010BD2DE9F04F04460D46CA
:102A0000D21D22F0070089B0D0E900974846394628
:102A10000DF0D7F80246F80F01D02D2307E020680B
:102A2000810701D52B2302E0202101EAC0038DF8A4
:102A300020300BB1012000E00020032A824601D0A3
:102A4000072A04DB2946204600F054F93FE12078AC
:102A5000800601D40D2500E0E569C7F30A560D2D67
:102A600049DA00214FEA175B08464FF00000002FBB
:102A700000F4400007DA00EB80004FF4400100EB67
:102A8000D07001EA60008115012901DD4FF0FF31AE
:102A900000224FEA850CBCF1180F06D31346ACF1A7
:102AA00018004FF08052C24003E04FF4801323FA25
:102AB0000CF30CF10C0CBCF1200F04D3ACF1200C86
:102AC00009FA0CF001E007FA0CF000294FF0004879
:102AD00001DD18B90FE00ED140450CD319EB020906
:102AE0005F4121B9404502D19F4329EA0209BBEB6E
:102AF000175F00D0761C2088000502D57B487844FB
:102B000002E07A487844193808AA302302F80A30DB
:102B1000037C0AF10101002E0AF1020A53546A46AD
:102B200002DC4FF0300101E04FF031014FF00108BD
:102B30008DF8001002D0A6F2FF3603E059EA4701F3
:102B400000D06B4E002D02DC2178090704D54FF030
:102B500002082E218DF80110C44600210BE0C7F3B6
:102B600003433F01C35C491C6D1E02F80830052970
:102B700008F1010801DA002DF1DC00210CE000EB86
:102B80001973491C1B786D1E082902F808304FEA9A
:102B9000091908F1010801DA002DF0DC21688B0623
:102BA00002D516E0A8F10108E04505DD02EB0803B7
:102BB00013F8013C302BF5D0B8F1000F09DD02EB22
:102BC000080313F8013C2E2B03D1090701D4A8F107
:102BD0000108002D05DD3E2102F808106D1E08F1E8
:102BE0000108407C002E02F8080008F1010804DA10
:102BF0002D20764202F8080002E02B2002F808009F
:102C00000A214FF47A70864208F101080BDB96FB2B
:102C1000F0F3303302F8083096FBF0F308F10108C6
:102C200000FB136601E0642E0CDB642096FBF0F3DE
:102C3000303302F8083096FBF0F308F1010800FB8E
:102C4000136601E00A2E06DB96FBF1F0303002F845
:102C5000080008F1010896FBF1F001FB106030302C
:102C600002F80800A16908F1010808EB050202EB6F
:102C70000A00081AA0612078C00602D42046FEF798
:102C8000D4FA216A08AE01EB0A00206204E0D4E91C
:102C9000012116F8010B9047BAF1010AF7D220780A
:102CA000C00602D52046FEF7C0FA6E4609E016F8C7
:102CB000010B3E280FD0D4E901219047206A401C27
:102CC0002062B8F10108F2D22046FEF7C4FA09B03A
:102CD0000320BDE8F08F206A2844206203E0D4E995
:102CE0000121302090476D1EEBD3F8E789210100C8
:102CF00002FCFFFF2DE9F0411F4604460326016850
:102D0000072A01F4006004DB08B116A505E016A54A
:102D100003E008B115A500E015A521F01000206022
:102D2000A069C01EA0610FB1401EA0612046FEF741
:102D30007CFA4FB1D4E9012138469047206A401C03
:102D40002062C01C206206E0206AFAE7D4E9012173
:102D500015F8010B9047761EF8D22046FEF77BFA55
:102D6000BDE8F0814E414E006E616E00494E460056
:102D7000696E660010B5436913B1AFF3008001E0DE
:102D8000FEF78CFA012010BD127800F124010A70C0
:102D900000224A700122EDE711684FF0FF32E9E7A7
:102DA00010B5436913B1AFF3008001E0FEF754FDA5
:102DB000012010BD128800F1240182840022C28407
:102DC0000122EDE711684FF0FF32E9E72DE9F34FFB
:102DD0004FF0000A0C4656468DB001200C9001F1D0
:102DE0000C000B9062690B9801219047051E2DD0B5
:102DF000252D2CD0216A8847C0B162690B9801212A
:102E00009047216A88470028F7D16269411E0B98D4
:102E1000904700E0761CA1690D988847216A884791
:102E20000028F7D1E1690D988847DBE7A1690D9883
:102E30008847A842074601D1761CD3E7E1690D987F
:102E400088477F1C02D1BAF1000F6FD06BE1626935
:102E50000B9800273D46394690472A2804D16269DD
:102E60000B98012190470125DFF8D08262690B9809
:102E700001219047A0F130010A290AD24745E5DC3B
:102E800007EB870100EB4107303FDFD445F0100529
:102E9000ECE7E90601D46FF000476C280AD04C2813
:102EA00014D0682815D06A280DD074281CD07A2830
:102EB0001AD01DE062690B98012190476C2802D05E
:102EC00045F0040514E045F002050DE045F020054D
:102ED0000AE062690B9801219047682802D045F00A
:102EE000080505E045F4006562690B9801219047EB
:102EF000C4E9015765283DD019DC58287AD00CDC8C
:102F0000452837D004DC252826D041289ED131E041
:102F100046282FD0472899D12CE05B2877D061280C
:102F200028D063287CD0642823D15AE0F6E06F28AB
:102F300048D008DC66281DD067281BD0692821D01E
:102F40006E2816D127E0702845D0732868D07528E0
:102F500047D078280DD14DE0A1690D9888472528E4
:102F600005463FF469AFE1690D9888476D1C3FF451
:102F70006AAFD8E00D9923466A466FF0010011F060
:102F800083FBC5E045F0400023464FF0000260603F
:102F9000A80736D43EE0E8077FF447AF2068011D5C
:102FA00021600068290501D506701BE7290701D5B6
:102FB000068017E7A90703D5F117C0E9006111E7FB
:102FC00006600FE745F0400023464FF008026060BE
:102FD000A80716D41EE040F60E0125EA0100606045
:102FE00016E045F0400023464FF00A026060A80753
:102FF00007D40FE045F040006060A80708D52346DD
:1030000010220D996FF00100FEF726FD80E007E029
:10301000102223460D996FF00100FDF7C3FC77E005
:103020004FF0000963284F46C8464B46CB4602D0B6
:103030005B2806D038E0E80601D40120A060012713
:1030400032E06269D4F80CB00B98012190475E28F9
:1030500007D14FF0010949466269D4F80CB00B98CA
:103060009047216939B900210A4603AB43F8212072
:10307000491C0829FADBD8B3216949B308F10108D2
:1030800062690B98012190475D28F4D1B9F1000FD6
:1030900009D0002003A951F82020D24341F8202074
:1030A000401C0828F7DB03AB2069002820794FEA91
:1030B00040701ED05B462246CDF80080CDE90197D6
:1030C0000D9900286FF0010020DAFEF79FFF1FE046
:1030D000C11703AA00EBD1614B1121F01F0102EBD4
:1030E0008302411A13680120884003431360C7E735
:1030F00019E00D99224600286FF00100009702DACE
:10310000FEF786FE04E0FEF752FD01E0FEF70AFF3F
:1031100000280ADA401C06D10C9820B14FF0FF308D
:103120000FB0BDE8F08F5046FAE7E90701D10AF188
:10313000010A064400200C9054E60000CCCCCC0CD4
:103140002DE9FF4F06468BB00878FF2806D0491CB2
:103150002D2805D000244FF0000908E000200CE0E5
:103160000124F8E709EB8903491C00EB43090878BF
:10317000FF28F7D114B1C9F100008146107800256D
:103180002C46AA4629462D2801D02B2804D1521CB2
:103190002D2813D0002082468B461078FF280FD0B0
:1031A0004FF0000C0A21521CA5FB017804FB0181A1
:1031B00005FB0C11C5194BEB0104EEE70120EAE712
:1031C000002108464FF00000BAF1000F02D000EBDA
:1031D00080004008C0F38157012F01DD4FF0FF3719
:1031E0000E9955EA040009EB01080BD04FF00209D3
:1031F00018F5FA7F16DA4FEACA70002F706008DD02
:10320000012007E04FEACA70C6E900B00FB0BDE880
:10321000F08F00203060FDF74DF9C0F800901821C4
:10322000084616E0B8F5FA7F18DD002F02DAF748F5
:10323000784401E0F6487844D0E90010C6E900106F
:1032400040EACA707060FDF735F9C0F800901421AB
:1032500008460FB0BDE8F04F11F089B900210846CB
:103260004FF00000B8F10001099002DAC7F1000246
:1032700000E03A4601DAC8F1000106A800F03AFA87
:1032800006AB93E8070003AB83E8070044F23E0077
:103290005BEA04010090584604D144F21E012C461A
:1032A0005D460091210C0904014306D100992404D4
:1032B00044EA15442D041039009104F07F41014384
:1032C00006D10099240244EA15642D0208390091C0
:1032D00004F07041014306D10099240144EA1574B9
:1032E0002D01091F009104F04041014306D10099CE
:1032F000A40044EA9574AD00891E009104F00041D9
:10330000084304D100986D196441401E00904FF0AD
:1033100001033A466846B8F1000FCDE9014503A91B
:1033200002DD01F022FA01E001F0F5F9BAF1000F37
:1033300004460D4601D084F00044002108464FF0B9
:103340000000099940F2FF77484010F00C0F07D1B8
:1033500024F00040284303D0C4F30A50B84212D1ED
:10336000FDF7A8F8C0F80090C4F30A50B8420AD19B
:10337000A8487844D0E90010C6E9001004F00041E4
:103380000843706042E7C6E900543FE72DE9FF4F6C
:103390001F464FF0000A4FF0FF38454691B0D7E97D
:1033A0000146CDF83CA0FFF7BBFAC0680168405C5D
:1033B0001090B96912986D1C8847396A8146884710
:1033C0000028F6D1B9F1FF3F0AD0002E24F4D064D2
:1033D00011DDB9F12B0F08D0B9F12D0F0BD102E09F
:1033E000404615B013E744F48064B96912986D1C27
:1033F0008847761E8146600504A901D52D2000E08E
:103400002B20002E01F1010B0DF130088DF810007A
:103410003FDDB9F1690F08D0B9F1490F05D0B9F115
:103420006E0F02D0B9F14E0F1CD13B4601A800959A
:1034300080E85002DDE912126FF0020011F028F965
:10344000C11CCED10EE0B96912986D1C8847814627
:103450001398761E44F4007405600F98401C002EEB
:103460000F9016DDB9F1300FEDD0B9F1780F02D021
:10347000B9F1580F0DD10F9801280AD13B46CDE97B
:103480000054DDE91212001F029611F0FFF8C11C72
:10349000A7D1109989453ED144F0800406E01399E4
:1034A000681CAAF1010A44F400740860B9696D1C33
:1034B0001298761E884730288146F0D02BE010996C
:1034C000894505D1200603D4761E44F0800418E017
:1034D00048460CF098FE08B3761E0DF123018B458B
:1034E00044F4007408D2A9F130000BF8010B200657
:1034F00007D5AAF1010003E0200602D40AF1010079
:103500008246A00502D51399681C0860B969129813
:103510006D1C88478146002ED1DC53E0002E51DD22
:10352000B9F1650F02D0B9F1450F4BD1A00549D5CE
:10353000B9696D1C1298761E24F440748847002ED9
:1035400081460CDD2B2804D0B9F12D0F07D144F4AE
:103550008074B96912986D1C8847761E8146E00513
:1035600001D52D2100E02B2108F8011BCDF80080AA
:1035700021E0761E0DF13901884544F400740CD227
:10358000A9F1300010F0FF0088F8000002D1009986
:10359000884509D908F1010806E0E00501D51E4873
:1035A00001E042F20F708246B96912986D1C88479B
:1035B000814613980560002E04DD48460CF023FE7A
:1035C0000028D6D1F96912988847FF2053468BF816
:1035D000000088F8000000200A900B9004AA0CA9B3
:1035E0000AA8FFF7ADFDA00502D46FF00100F8E6D0
:1035F00014F0240F12D0E0071CD13868DDE90A125C
:10360000031D3B600068C0E9001213E0382C010084
:103610002A2C0100EE2A0100F1D8FFFF0AA9684612
:103620000CF08EFBE00705D13868009A011D396067
:10363000006802602846D4E62DE9F05F8246154610
:103640008B4600270AF10104B9460078302801D0E2
:103650009DB113E014F8010B0127782803D05828F6
:1036600001D045B10AE00DB1102D07D1002714F8A3
:10367000010B102502E0082500E00A250026B046CF
:103680000EE005FB080005FB06F101271FFA80F894
:1036900001EB1046B6F5803F00D3B94614F8010B94
:1036A0002946FEF7CBF90028EBDABBF1000F05D075
:1036B0000FB1641E00E05446CBF80040B9F1000F92
:1036C00006D0FCF7F7FE02210160C81EBDE8F09F9E
:1036D00048EA0640FAE710B508E030F8024B9C4291
:1036E00004D10AB1002010BD012010BD491EF4D242
:1036F000104610BD2DE9F047814616468AB0354880
:1037000078440DC88DE80D0032487844801C03AC25
:103710000DC884E80D0041F69B300844372190FB2A
:10372000F1F290FBF1F5A5F1800501FB12041B3CC1
:1037300002D56442012000E00020DFF898A0804616
:103740000027FA44AAF1BE0A0EE0E0070AD032468A
:10375000684607EB470101230AEB810100F0F0FF07
:103760008DE8070064107F1C002CEED1194F7F44B8
:10377000AE3F19E0E80715D007EB04100DF1180A69
:1037800090E80E008AE80E00C068F04201D1981956
:1037900008903246012306A903A800F0D1FF03AB2D
:1037A00083E807006D10641C002DE3D14FF0010386
:1037B00032466946B8F1000F03A802D000F096FF28
:1037C00001E000F0BDFFC9E90001C9F808200AB016
:1037D000BDE8F0871816010010B50146C2689007D1
:1037E00003D0900607D5886A0AE0FCF763FE012142
:1037F0000160881E10BD8B69486818440B69C01AA7
:1038000091F848301BB191F84910401A10BD1103CE
:10381000FCD50028FADD401E10BD000070B505463D
:1038200040F202260A4C0FE094F85000C00708D07E
:10383000AC4206D0E06836EA000002D12046FDF72F
:1038400065F9206D20F00104002CEDD170BD000061
:103850000C1400100A460146014800F028B9000087
:103860003815001070B516460C460546FFF750F89F
:10387000036893F80101012804D0185D68B10120A4
:103880002C8070BDD3F803013246214603F20313A6
:1038900003442846BDE8704018474FF0FF3070BD24
:1038A00070B516460C460546FFF732F8036893F8E4
:1038B0000101012806D0FF2C0FD8185D68B1012046
:1038C0002C7070BDD3F807013246214603F207136E
:1038D00003442846BDE8704018474FF0FF3070BDE4
:1038E000002801D0FFF70EB8704710B500F088F936
:1038F000BDE81040FFF7F4BF10B500F099F9BDE83E
:103900001040FFF7EDBF10B500F0ACF9BDE8104076
:10391000FFF7E6BF10B5002102A000F057F9012023
:1039200010BD00005349475056464E3A205075721C
:1039300065207669727475616C20666E2063616CB7
:103940006C65640001B5FDF75DFA01BD124B694677
:1039500000F580528A421A6001D8114670471960FA
:10396000704730B50C4D6B46A3F580532C6822444C
:103970009A420FD89B1A02F5805003EBD37302EBE7
:103980006303984200D91846C01D20F007020C605E
:10399000101B2A6030BD0000C402001010B500F0FA
:1039A0000EF8016919B100220261884701E08068C0
:1039B0008047FEF753FF000010B5FEF74FFF70B5CC
:1039C00000F024F804680546A4B92020FCF776FD31
:1039D000040011D0094900202C60C4E90001084905
:1039E000A1602073206160610649A06109B100F007
:1039F00062F9E061204670BDFEF730FF0000000074
:103A0000B93900000000000070470000004870470E
:103A10006415001070B50646484231EA00000FD028
:103A20002A20741C00253070FEF77AFF034600221E
:103A300053F82500010F000109292BD957312AE03D
:103A4000042913D004DC012908D0022904D109E09B
:103A500008290FD0102911D0002070BDFEF760FF9B
:103A600000680EE0FEF75CFF40680AE0FEF758FFD2
:103A7000806806E0FEF754FFC06802E0FEF750FFE2
:103A8000006928B120F0030050F8041C084470BD00
:103A90004CA070BD3031521C082A04F8011BC9D358
:103AA0006D1C052DC3DB00202070304670BD09B1B0
:103AB0004B0901D00020704722B113782A2B02D085
:103AC00000F034B8A6E7AFF300802DE9F0410F46CF
:103AD0008046541C00250026314614F8010BA0F145
:103AE0003002092A03D9A0F16103052B16D8392821
:103AF00001D8104600E05738491C082940EA06164C
:103B0000EBD30120A840384203D0FEF709FF40F86C
:103B100025606D1C052DDEDB207810B10020BDE88E
:103B2000F08139464046BDE8F04173E72DE9F041A8
:103B30000C460646154688070AD5114622487844A1
:103B40000EF0E6FF071EEAD0FEF7EAFE7F1C476094
:103B5000E0070AD029461C4878441A38AFF30080A1
:103B6000071EDCD0FEF7DCFE076060070AD5294699
:103B7000154878443438AFF30080071ECFD0FEF7E5
:103B8000CFFE876020070AD529460F4878444E3873
:103B90000EF0A8FF071EC2D0FEF7C2FEC760E00607
:103BA0000AD52946084878446838AFF30080051ED6
:103BB000B5D0FEF7B5FE056121463046BDE8F041BF
:103BC00028E7ACE7430000006A24010070B5054611
:103BD0000C460A2000E06D1C00F08BF835B1287807
:103BE0000028F8D102E0641C00F083F814B12078BA
:103BF0000028F8D1BDE870400A2000F07AB8000033
:103C000010B5002102A0FFF7E1FF012010BD000068
:103C1000534947414252543A2041626E6F726D617E
:103C20006C207465726D696E6174696F6E0000005E
:103C300010B5014602A0FFF7C9FF012010BD00002A
:103C400053494752545245443A205265646972655B
:103C500063743A2063616E2774206F70656E3A203A
:103C60000000000010B5012805D0002103A0FFF7D7
:103C7000ADFF012010BD09A1F8E7000053494752EC
:103C8000544D454D3A204F7574206F66206865612C
:103C900070206D656D6F7279000000003A204865F4
:103CA0006170206D656D6F727920636F72727570CF
:103CB0007465640000DE10B58820FCF7FFFB002867
:103CC00001D00021017010BD802902D808B101780F
:103CD00009B100207047012100F8081B704718B196
:103CE00000F10802914201D00020704700210170CC
:103CF000704708B569468DF800000320ABBE08BDCB
:103D00002DE9FF4F1F464FF03C0987B04FF00042AE
:103D1000DDE9141001F10108DDF858A002EA405075
:103D20000390002005908346054604460490B96937
:103D3000461E08988847AAF1010A0290BAF1000FBE
:103D40003BDD02982E2815D01021FDF777FE0028C4
:103D50002EDB4FF0010B0599014317D0B9F1000F8D
:103D60000BDB4A46C117FCF776FC05430C43A9F16F
:103D7000040905E0012004900BE008B145F00105BD
:103D800001200590049820B9361D02E0049800B186
:103D9000361FB969089808F101088847BBF1000F80
:103DA000AAF1010A0290C9D00999C1F80080C5E7BB
:103DB0000298702808D0502806D0F96908988847DA
:103DC000BBF1000F14D04FE0002002900120BBF1A6
:103DD000000F049009D0B969089808F101088847D4
:103DE000AAF10109B9F1000F07DCF96908988847C1
:103DF0006FF001000BB0BDE8F08F2B2804D02D2808
:103E00000CD14FF0FF300490B969089808F101080F
:103E10008847A9F10109B9F1000FE6DD411CE4D0A2
:103E20000A21FDF70BFE0028DFDB029908F10108EB
:103E300001EB810100EB41000290B96908988847C5
:103E40000A21FDF7FBFD099AA9F10109B9F1000F5B
:103E5000C2F8008001DD0028E7DAF9690898884790
:103E60000499029800FB016655EA040004D004F0AE
:103E70004041090002D006E0039898E0A40044EA1B
:103E80009574AD00B61E04F00041080002D16D1912
:103E90006441761E159810F0240F03D04FF00B09E3
:103EA0005C4803E04FF028096FF07D0082465645DC
:103EB00007DAAAEB06018944B9F1410F01DD4FF0A1
:103EC000410901200021A9F10102FCF7C4FB0246CF
:103ED00028400B462140084301D0012100E0002189
:103EE000501E029143F1FF3128402140084301D088
:103EF000012000E000200299834651EA0B014FD0D7
:103F0000002108464FF00000039900F4400039B149
:103F100000EB80004FF4400100EBD07001EA60003C
:103F20008015012802DD4FF0FF3000E013D0401C67
:103F300036D0029860B3BBF1000F0CD14A46012085
:103F40000021FCF788FB28402140084301D00120D4
:103F500000E00020E0B101204A460021FCF77BFB95
:103F6000034640190A4661412D1A8C4111D3B9F11B
:103F7000400F09DD159810F0240F02D0AAF1340685
:103F800003E0AAF1170600E0761C00254FF000447C
:103F900006E05B1E42F1FF3220EA030521EA02043B
:103FA000CAF10100B04206DA1B49039808430190A8
:103FB000002000900EE0039AC4F3D321E80A0A43DC
:103FC000164940EA44500A433146CDE900026846AA
:103FD0000CF00AF9159810F0240F0BD01598C007B3
:103FE00015D13868DDE90012031D3B600068C0E9A7
:103FF00000120CE002A869460BF0A2FE1598C0075B
:1040000005D13868029A011D396000680260404697
:10401000F0E6000002FCFFFF0000F07F0000F03F30
:104020002DE9FF4F92461D4685B04FF00041DDE976
:10403000124BDDE914727F1E01EA4B50414940F0FA
:10404000FF4940EA0108002122F02000492804919C
:1040500002D04E2828D04CE03BA0012607C88DE8AE
:104060000700A9690698641C88477F1E014606D48C
:104070001DF8060018B121F0200181420BD0E9693A
:1040800006988847032E34D0082E32D06FF00100F6
:1040900009B0BDE8F08F761C032E01D0082EE0D1C8
:1040A000601CCAF80000DCE7A9690698641C884710
:1040B0007F1E2AD420F02000412826D1A969069825
:1040C000641C88477F1E20D420F020004E281CD17D
:1040D000A9690698641C88477F1E48F4002849F4A3
:1040E0008009CAF8004001D4282806D0E96906985A
:1040F00088475FEACB7012D022E0A9690698641C59
:1041000088477F1E01D4002803DAE96906988847AA
:10411000BCE72928F1D1641CCAF80040E9E71BF08C
:10412000240F07D028680499031D2B600068C0E99C
:10413000001805E02868021D2A600068C0F8009099
:104140002046A5E70000F07F494E46494E495459A4
:10415000000000002DE9F04116461F460C46851B65
:1041600002E02846B847AD1B641EFAD2BDE8F081D4
:104170005FEA400C08BF91F0000F4FEA8C234FEA32
:10418000C12243EA51514FEA1C5018BF00F5F040DC
:104190004FEA300018BF41F000415FEA6C5C00F06C
:1041A0002980BCF1FF3F08BF40F080407047130CEE
:1041B00006BF12044FF0100C4FF0000C130E04BF9A
:1041C00012020CF1080C130F04BF12010CF1040CC5
:1041D000930F04BF92000CF1020CD30F04BF5200E6
:1041E0000CF1010C11464FF00002A0F11F00A0EBF2
:1041F0000C00704711F0004F08BF704731F00041CC
:104200003FF4D5AF0B0C06BF09044FF0100C4FF074
:10421000000C0B0E04BF09020CF1080C0B0F04BFBD
:1042200009010CF1040C8B0F04BF89000CF1020C86
:10423000CB0F04BF49000CF1010CCCF12003A0EB23
:104240000C0022FA03F302FA0CF241EA030100F136
:104250000100704720F07F4C80EA030023F07F4785
:10426000ACEB070303F57C5300F0004003F1FF03C0
:104270002DE980494FEA154B09B44FEA144325EA6A
:104280000B4E24EA03480FF2042606EB13274908D5
:104290003E785FEA320203FB0667C7F5000707FBBB
:1042A00006F64FEA54374FEAD64606F1020607FBF8
:1042B000066CCCF1005C4FEA1C472CEA074C07FB6C
:1042C00006F40CFB06F504EB15464FEA961634BFD0
:1042D00000204FF000404FEAD13706FB07FC4FEAC1
:1042E0001C4C0CFB0BF7D21B03FB0CF761EB07011B
:1042F0000CFB0EF7B0EB074072EB17420CFB08F714
:1043000034BFA2EB0742B2EB074261EB17414FEA21
:104310000C444FEA910706FB07FC4FEA1C4C0CFBD0
:104320000BF7B0EBC74072EB573203FB0CF734BF0F
:10433000A2EBC742B2EBC74261EB57310CFB0EF761
:10434000B0EBC70072EB57720CFB08F734BFA2EB5F
:10435000C702B2EBC70261EB5771039F4FEA81615D
:1043600041EA921104EBCC044FEAD1374FEA826262
:1043700006FB07FC42EA90124FEA80604FEA1C4CB1
:104380000CFB0BF7D21B03FB0CF761EB07010CFBDB
:104390000EF7B0EB074072EB17420CFB08F734BF87
:1043A000A2EB0742B2EB074261EB17414FEA8C5593
:1043B0004FEA910704EB9C2406FB07FC4FEA1C4CD8
:1043C0000CFB0BF7B0EBC74072EB573203FB0CF75B
:1043D00034BFA2EBC742B2EBC74261EB57310CFBD3
:1043E0000EF7B0EBC70072EB57720CFB08F734BF47
:1043F000A2EBC702B2EBC70261EB577115EB4C257C
:104400004FEA816141EA92114FEA82624FEAD13765
:1044100042EA901206FB07FC44F100044FEA806078
:104420004FEA1C4C0CFB0BF7D21B03FB0CF761EBA8
:1044300007010CFB0EF7B0EB074072EB17420CFBC9
:1044400008F734BFA2EB0742B2EB074261EB17411A
:1044500015EB1C154FEA813141EA92414FEA823255
:1044600042EA90424FEA80304FEA0C7644F1000471
:1044700048EA03434EEA0B484FF0000EB2EB080C3B
:1044800071EB030724BF624639464EEB0E0E4FF028
:10449000000B0018524149414BEB0B0BB2EB080CDF
:1044A00071EB03077BF1000B24BF624639464EEBEC
:1044B0000E0E4FF0000B0018524149414BEB0B0B15
:1044C000B2EB080C71EB03077BF1000B24BF6246D3
:1044D00039464EEB0E0E51EA020718BF46F00106B0
:1044E00016EB0E7655F1000254F1000103D5BDE83C
:1044F0008901BDE80088BDE88901BDE80048B6191A
:10450000524141EB0101A3F10103704780807F7E9E
:104510007D7C7B7A79787776767574737271717039
:104520006F6E6E6D6C6C6B6A6A69686867666665EB
:104530006464636362616160605F5F5E5E5D5D5C79
:104540005C5B5B5A5A5959585857575656555555EA
:104550005454535352525251515050504F4F4F4E4A
:104560004E4D4D4D4C4C4C4B4B4B4A4A4A49494998
:1045700048484847474747464646454545444444DA
:1045800044434343434242424241414146EA064694
:10459000A3F570534FEA164646EA42564FEAD22236
:1045A00042EA415210B54FEAD121A3F1010300F0D4
:1045B0002FF820F0004000F1020C00F0004701EB62
:1045C00000501146BCF5006F40EA070000D210BD54
:1045D000BAF1000F0AD01CB503B44FF004004FF03D
:1045E00004014FF000000FBCBDE810404FF0000187
:1045F000BBF1010FB9BF04484FF0FF310348002160
:1046000040EA070010BD00BFFFFFEF7F0000F07F12
:10461000002B9C4630D477002BD01CB54FEA3707CF
:1046200003B44FF010004FF01001BAF1000F06D0A4
:10463000BCF1000FDCBF40F0080040F008014FF073
:1046400000000FBCBDE810400BF1010BBBF1010FE6
:1046500008BF5FEA170722BF12F1010211F1010141
:104660004FF0004143F1000300F0004043EA000036
:104670007047F9D35708D0E746EA064613F1400FD2
:104680004FEA16461FDD13F1200FDFBF16430A461F
:10469000002120335B42BED0C3F1200746EA064624
:1046A00002FA07F74FEA164646EA0706C3F1200763
:1046B00022FA03F201FA07F721FA03F14FF000039F
:1046C00042EA0702A7E746EA020646EA06464FEA3A
:1046D000164646EA0106BCBF46EA0646360C4FF0CF
:1046E00000034FF000024FF0000194E72DE9804CE9
:1046F0009A46934670B491E8380007C831EA400CF6
:1047000048BF34EA430C03D5FFF7A4FDFFF780FF51
:10471000F0BCBDE8008C2DE9804C9A46934670B4FD
:1047200091E8380007C831EA400C48BF34EA430C2E
:1047300003D5FFF78FFDFFF729FFF0BCBDE8008C24
:104740002DE9804C9A46934670B491E8380007C82A
:1047500010F0804F08BF13F0804F03D100F01AF81B
:10476000FFF756FFF0BCBDE8008C2DE9804C9A465F
:10477000934670B491E8380007C810F0804F08BF26
:1047800013F0804F03D100F005F8FFF7FFFEF0BCF7
:10479000BDE8008C20F07F4780EA030023F07F4CC7
:1047A00007EB0C03A3F57C5300F00040A3F1FE03DC
:1047B00092F0000F00F0B38095F0000F00F07780CA
:1047C0002DE901494FEA11404FEA144621EA004819
:1047D00000FB06FC24EA064708FB06F607FB08F880
:1047E00000FB07F718EB06484CEB164C4FEA124B50
:1047F00018EB07484FEA15464CEB174022EA0B4EE0
:104800000BFB06FC25EA06470EFB06F607FB0EFE31
:104810000BFB07F71EEB064E4CEB164C4FF0000659
:104820001EEB074E4CEB174B18EB0B0840F100004A
:1048300018EB0E0B58EB000840F100008F1A4FF0F8
:1048400000013CBFC943661B14BFB5EB040C00213B
:104850003CBFC943F61B4FEA17444EEA8E0E27EAC7
:1048600004454FEA1C4704FB07622CEA074C05FB92
:1048700007F70CFB05F604FB0CFC16EB074642EBB6
:10488000174216EB0C4642EB1C421BEB060658EB9C
:104890000202414146EA9E0601D5BDE80189B619EA
:1048A000524141EB0101A3F10103BDE801894FEA47
:1048B00014454FEA114724EA054621EA074C05FB57
:1048C00007F406FB07F70CFB06F105FB0CFC11EBEC
:1048D000074144EB17444FEA124711EB0C4144EBFC
:1048E0001C4422EA074C05FB07F206FB07F70CFB0A
:1048F00006F605FB0CFC16EB074642EB174216EBDF
:104900000C4642EB1C456A1854F1000148BF704741
:10491000B619524141EB0101A3F10103704795F033
:10492000000F37D04FEA11424FEA144721EA0246FE
:1049300024EA074C02FB07F106FB07F70CFB06F421
:1049400002FB0CFC14EB074441EB17414FEA1547FF
:1049500014EB0C4441EB1C4125EA074C02FB07F524
:1049600006FB07F70CFB06F602FB0CFC16EB0746F2
:1049700045EB174516EB0C4645EB1C42121951F15D
:10498000000148BF7047B619524141EB0101A3F144
:10499000010370474FEA14454FEA114724EA0546E0
:1049A00021EA074C05FB07F106FB07F70CFB06F2B3
:1049B0004FF0000605FB0CFC12EB074241EB1741E0
:1049C00012EB0C4251EB1C4148BF7047921841EB6F
:1049D0000101A3F10103704710B5AFF30080BDE8FA
:1049E00010400CF087BA00000149016070470000D8
:1049F000741500100021016041608160C160704742
:104A000038B504466846AFF30080014620460EF0F4
:104A1000FFFB38BD25482021C0F8A011D0F8A01117
:104A200011F0200F05D000BFD0F8A01111F0400FF9
:104A3000FAD00221C0F804110022C0F8A821C0F861
:104A4000AC210121C0F80C110B23C0F88430AA233B
:104A5000C0F88C304FF0550CC0F88CC0C0F88010F6
:104A6000C0F88C30C0F88CC0D0F8881011F0806F7E
:104A7000FAD00321C0F88010C0F88C30C0F88CC088
:104A8000D0F8881011F0407FFAD00521C0F8081145
:104A90000749C0F8C410C0F8C821016843F23A02BF
:104AA00021F47041114301607047000000C00F40C5
:104AB000DE87280430B583B00546016801AA684640
:104AC0000EF08AFB02F0CEF9044668460EF060FB59
:104AD000002CBCBF03B030BDE1B2054806F01CFCA1
:104AE000034604A107482A6807F0DCFE03B030BD86
:104AF000A00C001050494E4D4F44452025732025F1
:104B0000640A0000580D00102DE9F04FDDB0B548E3
:104B100009F06EFEB44E306306F1130009F01DFA81
:104B200006F1340100F001020A70C0F340024A703D
:104B3000C0F380028A70C0F3C000C870A1F12100E8
:104B400009F0CEFAF06306F1130009F0F7F93072BC
:104B500006F1130009F0F6FE06F170027071A2F181
:104B60000801A1F1550009F0ABFAA04A06F11300C3
:104B7000A2F1200109F003FB22A906F1130009F0BC
:104B8000E6FA22A99A480AF060F95AA906F1130038
:104B900009F0CEF95AA996480AF0A8F842AA22A923
:104BA00006F1130009F0BCFE42AA22A990480AF0BF
:104BB0001AFA06F17801A1F1650009F09CFB8D4914
:104BC00006F1130009F028FC06F1130009F065FA5C
:104BD000B0716A4610A906F1130009F08FFE6A460B
:104BE00010A9854808F026FF2AA906F1130009F04C
:104BF00099F92AA9804808F089F82AA906F1130032
:104C000009F03DFA2AA97C4808F08BF96A4610A9F8
:104C100006F1130009F0B4FB6A4610A9764808F0C3
:104C200012FE06F1130009F0ECFD0146724808F08F
:104C300069FD06F1130009F028FA30836F4906F187
:104C4000130009F046FB6A4610A906F1130009F0AB
:104C5000D1FBDFF8AC81109B10AAC8F80030009B94
:104C6000C8F80430DDF804C0119C694640460723AB
:104C700052F8085F51F8087FC0E9024C5468D1F837
:104C800004C0E0E904575B1EF2D11F985C49C8F8E4
:104C900078000F98C867534809F0A2F901465648B2
:104CA000A0F83A112AA94F4809F01FFB2AA9524837
:104CB00008F0B8F810A94B4809F011FB10A94E48AC
:104CC00008F037FD4AAA3AA9464809F046FA4AAA26
:104CD0003AA94C4806F0CAFE52A9424809F0EAF93E
:104CE00052A9484806F070FE3E4809F0ADF9B0639D
:104CF0003C4809F02CFB30643A4809F065FBB0648D
:104D0000384809F08FFB7064364809F062FBF064A4
:104D1000344809F0CAF901463A48C0F884103A49C3
:104D2000881E09F076FD2F4809F062F9364CF071C3
:104D3000207800281CBF354808F0B6FE60780028AF
:104D40001CBF334808F0B0FE264809F082F93073E2
:104D5000244809F0D6FA7073224809F0FDFAF0737E
:104D6000204809F064FBB0732A491E4809F0EFF8A7
:104D700029491C4809F044F928491A4809F046F91C
:104D8000274D002405F16E06EF1C05F1060805F11C
:104D9000090905F10C0A05F10F0BE1B22FAA114820
:104DA00009F0FDF92F98002818BF012028553098E8
:104DB00046F8240031983855329808F804003398A2
:104DC00009F8040034980AF804003598002818BF40
:104DD00001200BF80400641C032CDEDB5DB0BDE891
:104DE000F08F00002B01001018010010AC0F001014
:104DF000380C0010A0100010B40A001010100010A1
:104E000020100010A00C00102D0100101C0E00102E
:104E1000540E00106004001070040010B004001064
:104E2000320100102DE9F04FAA267507D5B02E7279
:104E300055272F72A24C04F11300216B09F0DCFC02
:104E400004F134000178427841EA42018278C07866
:104E5000920042EAC0000843C1B204F1130009F015
:104E6000BAF804F11300E16B09F06CF9217A04F14E
:104E7000130009F0A5F8617904F1130009F08FFD22
:104E800004F17002A2F10801A1F1550009F04AF9FC
:104E90008C4A04F11300A2F1200109F0CFF926A9F0
:104EA000894809F0A7FF26A904F1130009F0AEF91B
:104EB00052A9854809F0D2FD52A904F1130009F066
:104EC00079F832AA26A980480AF074F832AA26A9ED
:104ED00004F1130009F051FD04F17801A1F165001E
:104EE00009F029FA794904F1130009F0D0FAA179FF
:104EF00004F1130009F004F916AA06A9744808F091
:104F000080FD16AA06A904F1130009F024FD2EA9BC
:104F10006F4807F055FE2EA904F1130009F044F87C
:104F20006B48407900BF014604F1130009F0DAFC38
:104F3000218B04F1130009F0DDF82EA9644807F075
:104F4000CBFF2EA904F1130009F0CEF816AA06A98A
:104F50005F4808F05FFC16AA06A904F1130009F0E7
:104F600021FA5C4904F1130009F0D3F95A4904F11C
:104F7000130009F064FA5648B0F83A01014604F10A
:104F8000130009F049F82EA9514807F0E1FE2EA9B7
:104F900004F1130009F0C9F906A94D4808F048FBCF
:104FA00006A904F1130009F0BAF92E722F7242AA71
:104FB0003AA94A4806F040FD42AA3AA904F1130072
:104FC00009F02AF94AA9454806F087FC4AA904F1E4
:104FD000130009F0A1F804F11300A16B09F043F8E4
:104FE00004F11300216C09F0BFF904F11300A16C66
:104FF00009F0F4F904F11300616C09F04EFA04F1C0
:105000001300E16C09F0F0F93448D0F8840001464F
:1050100004F1130009F07AF804F11501881E09F073
:1050200067FCE17904F1130008F0FCFF217B04F137
:10503000130009F01EF8617B04F1130009F081F9F7
:10504000E17B04F1130009F095F9A17B04F1130051
:1050500009F029FA224904F1130008F0B6FF2149AA
:1050600004F1130008F0E4FF1F4904F1130008F0F5
:10507000E5FF1E4D0024EE1EAF1FA5F10908A5F1A6
:105080000C0905F15F0AA5F10F0B18F804000DF1EA
:10509000040C2B5D325D395D8CE80F0019F80400BB
:1050A00000905AF824301BF80420E1B2104809F0AF
:1050B000D5F8641C032CE8DB55B0BDE8F08F000088
:1050C00018010010AC0F0010380C0010A0100010D8
:1050D000B40A00101010001020100010A00C0010D6
:1050E0006004001070040010B004001041010010B2
:1050F0002B0100102DE9F04F85B00D461E4690465D
:10510000834670A1DDF838A00EF030F96E4F6F4C79
:105110004FF00009002845D002AA684629680EF021
:105120005BF80022032103F065FD01280CBF012676
:10513000002668460EF02CF86EB101202073032281
:10514000A17B634806F0CAF9607B012827D90228B1
:1051500018D0012217E003AA01A829680EF03CF834
:105160000022032103F046FD002814BF002501257D
:1051700001A80EF00DF8002D14BF84F80C9000204B
:10518000E2D16FE00022A17B514806F059FD51A108
:1051900007F1300007F086FB05B0BDE8F08F00286E
:1051A000F0D1D6E74CA158460EF0E0F8A8B301AA1A
:1051B000684629680EF010F80122032103F01AFD59
:1051C00000F0FF0968460DF0E3FF002128460EF0CD
:1051D00093F80078442844D1B9F11F0F41D884F8DE
:1051E0000E9001AA6846D8F800100DF0F5FF0022D5
:1051F000032103F0FFFC607368460DF0C9FF01AAAC
:10520000684631680DF0E8FF0022042103F0F2FC4B
:10521000E07368460DF0BCFFB9E7FFE72FA15846E1
:105220000EF0A4F8002846D001AA684629680DF0BF
:10523000D3FF0222032103F0DDFCC4B268460DF067
:10524000A7FF002128460EF057F80078412808D122
:10525000012128460EF050F80078492801D10F2C82
:1052600005D9022004F098F905B0BDE8F08F01AA35
:105270006846D8F800100DF0AFFF0022032103F0BC
:10528000B9FC002818BF01201549085568460DF0E3
:105290007FFF30680BF0E8F80EF088F8114941F80C
:1052A0002400DAF800000BF0DFF80EF07FF80E496A
:1052B00041F824006BE705B00020BDE8F04F04F092
:1052C0006BB90000454E0000280D001018010010B9
:1052D000A00C00104F4B0A004F555400494E0000DF
:1052E0006004001070040010B00400102DE9F04FAD
:1052F000F04E89B0E0A106F1300007F0D3FAEEA13C
:10530000F0A0CDE90001F1A3F2A2F84906F13000C6
:1053100007F0C8FAF64906F1300007F0C3FAF54D78
:10532000F5A106F130002A6B07F0BCFA05F1340054
:10533000F5A1027806F1300007F0B4FAF8A106F101
:105340003000EA6B07F0AEFA2A7AFDA106F13000D0
:1053500007F0A8FAE87B32214843697BCDE90010C9
:10536000AB7B2A7BFD4906F1300007F09BFA6A7996
:10537000FBA106F1300007F095FAFE4906F1300076
:1053800007F090FA002405F1800905F1780A06F586
:105390005E7BE1B203AB02AAF74809F021FD224689
:1053A000F6A106F1300007F07DFAE1B2F24809F00B
:1053B00067FD002828D001282CD0022830D00328EF
:1053C00034D0042838D0EFA106F1300007F06AFA93
:1053D00003980EF05BFD0746884602980EF056FDD6
:1053E000CDE900780B460246E7A106F1300007F050
:1053F00059FA287CA04010F0010F23D0E5A106F156
:10540000300007F04FFA22E0E5A106F1300007F086
:1054100049FADDE7E4A106F1300007F043FAD7E7E7
:10542000E3A106F1300007F03DFAD1E7E2A106F171
:10543000300007F037FACBE7E1A106F1300007F0C2
:1054400031FAC5E7E0A106F1300007F02BFA19F8B0
:105450000420072A8CBFDFA1E0A106F1300088BF3D
:10546000083A07F01FFAE1B2C34850F821000EF0E5
:105470000DFD0746DB48884650F824000EF006FD77
:10548000CDE900780B460246BFA106F1300007F0D7
:1054900009FAA879E04010F0010F0DD0D2A106F171
:1054A000300007F0FFF9D248005D58B1CEA106F1F7
:1054B000300007F0F7F90AE0CEA106F1300007F05E
:1054C000F1F9F0E7CBA106F1300007F0EBF9CB489A
:1054D000CBA1025D06F1300007F0E4F91AF80400F0
:1054E00000285DD0012861D0A6A106F1300007F0A8
:1054F000D9F900BF5BF824000EF0C8FC02460B4649
:10550000C1A106F1300007F0CDF9641C082CFFF6AC
:1055100040AFBF4906F1300007F0C4F9DFF8F4B23C
:1055200000240BF11009E1B207AB06AABA4807F054
:10553000FEFDE1B205AB04AAB74807F098FC0746A8
:1055400022468EA106F1300007F0ACF9E1B2B24874
:1055500008F08DF980B3012835D0022839D089A10F
:1055600006F1300007F09EF907980EF08FFC804698
:105570008A4606980EF08AFCCDE9008A02460B4660
:1055800081A106F1300007F08DF9E1B2A24808F0E0
:1055900023FA20B37FA106F1300007F083F923E05E
:1055A0009EA106F1300007F07DF9A3E79CA106F16A
:1055B000300007F077F99DE7FFE779A106F13000A9
:1055C00007F070F9D0E778A106F1300007F06AF92A
:1055D000CAE777A106F1300007F064F9C4E77AA1C1
:1055E00006F1300007F05EF9E1B28B4808F0F0F9FF
:1055F00007288948E1B209D908F0EAF9A0F10802C0
:1056000074A106F1300007F04DF907E008F0E0F969
:10561000024672A106F1300007F044F9E1B27E487B
:1056200007F090FD0EF032FC80468A46E1B27A48DF
:1056300007F02BFC0EF02AFCCDE9008A0B4602464F
:1056400051A106F1300007F02DF9288BE04010F051
:10565000010F0FD072A106F1300007F023F969A104
:1056600006F1300007F01EF91BF80400002802D0F4
:105670000128D7E04CE152E10A2D2D2D2D2D2D2DA5
:105680002D2D2D2D2D2D2D2D2D2D2D2D2D2D2D2D4A
:105690002D2D2D2D2D2D2D2D2D2D2D2D2D2D2D2D3A
:1056A0002D2D2D2D2D2D2D2D2D2D2D2D2D2D2D2D2A
:1056B0002D2D0A00280D001031322D30332D3230BF
:1056C0003230000056312E372E31000056312E3048
:1056D00000000000416E616C6F6720436F6E747252
:1056E0006F6C20426F617264000000006C53010017
:1056F000B05301001801001042617564207261749A
:10570000653A2025640A00004D756C7469757064F3
:1057100061746520656E61626C653A2025640A00DB
:105720004D756C746975706461746520696E74651B
:105730007276616C3A202564206D730A00000000C7
:10574000456D657267656E63792073746F7020654F
:105750006E61626C653A2025640A0000FC5301000A
:105760004C696E6B20656E61626C653A2025640A37
:1057700000000000A8550100380C0010256409093C
:1057800000000000457272000909256609256609B6
:1057900000000000456E61626C656409090000004C
:1057A0002B2D322E355600002B2D355600000000D3
:1057B0002B2D313056000000302D355600000000F2
:1057C000302D31305600000044697361626C6564AD
:1057D000090000004149256400000000414F256494
:1057E00000000000E01000104F6E090900000000EA
:1057F000880100104F666609090000008001001052
:105800004149256409090000090925660A000000CC
:105810008052010010100010B40A00104F6666009C
:105820004F6E000070D002286FD003286ED004287D
:105830006DD0AFF2B00106F1300007F033F800BFD1
:1058400009EBC40040680EF021FB80468A4659F8F7
:1058500034000EF01BFB0B460246AFF2D401CDE93B
:10586000008A06F1300007F01DF8002F7CD0012FD0
:1058700070D0022F6FD0032F6ED0042F6DD0AFF2F7
:10588000FC0106F1300007F00DF805980EF0FEFA65
:105890000746884604980EF0F9FACDE900780B46E1
:1058A0000246FDA106F1300006F0FCFFFC4850F86E
:1058B00024000EF0EBFA0746FA48884650F8240018
:1058C0000EF0E4FA8DE88301F748F8A1025D06F1D5
:1058D000300006F0E7FF641C102CFFF624AEF748FA
:1058E000407900BF022198B310F0010F18BF0421C6
:1058F000420803D08906090E521EFBD14A0838B36C
:10590000072808BF80224FE010E015E01AE025E0EC
:10591000AFF2F80106F1300006F0C4FF9FE6AFF2E7
:10592000041106F1300006F0BDFF89E7E4A106F19D
:10593000300006F0B7FF83E7E3A106F1300006F080
:10594000B1FF7DE7E2A106F1300006F0ABFF77E79B
:1059500029E009E00FE014E019E01EE0DEA106F105
:10596000300006F09FFF6BE7AFF2501106F13000F8
:1059700006F098FF89E7D2A106F1300006F092FF09
:1059800083E7D1A106F1300006F08CFF7DE7D0A1BE
:1059900006F1300006F086FF77E7CFA106F1300070
:1059A00006F080FF71E70022CDA106F1300006F07D
:1059B00079FFD14906F1300006F074FFCF4F002483
:1059C000A7F120082246AFF24C2106F1300006F084
:1059D00069FFE1B2CA4805F09FFC5FEA000934D0D4
:1059E000B9F1010F3DD0B9F1020F46D0B9F1030F63
:1059F0004FD0B9F1040F63D0B9F1050F6CD0B9F1F4
:105A0000060F77D0B9F1070F73D0AFF2882106F1F6
:105A1000300006F047FFAFF2142106F1300006F027
:105A200041FFB9F1030F7CD2E1B2B54806F0B2F8FC
:105A300000287CD0B9F1030F36D072D2E1B2B04861
:105A400006F0A8F801286CD189E0AEA106F130007B
:105A500006F028FFAFF2542106F1300006F022FFD5
:105A6000E2E7A9A106F1300006F01CFFAFF26C21BD
:105A700006F1300006F016FFD6E7A5A106F13000CA
:105A800006F010FFAFF2842106F1300006F00AFFA5
:105A9000CAE7A1A106F1300006F004FFAFF29C2195
:105AA00006F1300006F0FEFEE1B2954806F0B2F8CD
:105AB000E8B3E1B2924806F0ADF801284FD030E0EB
:105AC00096A106F1300006F0EDFEAFF2C82106F116
:105AD000300006F0E7FE24E091A106F1300006F068
:105AE000E1FEAFF2E02106F1300006F0DBFE18E047
:105AF00000E00BE08BA106F1300006F0D3FEAFF220
:105B0000FC2106F1300006F0CDFE0AE086A106F188
:105B1000300006F0C7FEAFF2143106F1300006F097
:105B2000C1FE65A106F1300006F0BCFE00E010E009
:105B3000AFF2303106F1300006F0B4FEE1B2704849
:105B400006F062F888B17AA106F1300006F0AAFEEC
:105B500010E079A106F1300006F0A4FEE6E777A197
:105B600006F1300006F09EFEE0E776A106F1300077
:105B700006F098FEE1B2624805F0AAFE58B301288B
:105B800030D0022834D0032838D0AFF2084106F1D3
:105B9000300006F087FEAFF2943106F1300006F0D7
:105BA00081FEA86BE04010F0010F2DD0AFF29031D4
:105BB00006F1300006F076FEAFF2B83106F13000A3
:105BC00006F070FE385D30B3AFF2E43106F130001C
:105BD00006F068FE25E0AFF2BC3106F1300006F0B9
:105BE00061FED8E759A106F1300006F05BFED2E76E
:105BF00057A106F1300006F055FECCE756A106F19C
:105C0000300006F04FFEC6E7AFF2F03106F130008B
:105C100006F048FED0E7AFF2244106F1300006F06E
:105C200041FE18F804204EA106F1300006F03AFEBD
:105C3000286CE04010F0010F2BD0AFF21C4106F1B0
:105C4000300006F02FFEAFF2444106F1300006F0BE
:105C500029FEA86CE04010F0010F1BD037A106F11F
:105C6000300006F01FFEAFF2644106F1300006F08E
:105C700019FE686CE04010F0010F0CD0AFF26041EB
:105C800006F1300006F00EFEAFF2884106F130005A
:105C90006AE099E09FE0A5E009092566092566000C
:105CA000B00400107004001060040010092564099D
:105CB000092566090925660A00000000B40A0010DB
